:1000000071C000008EC000008CC000008AC00000DB
:1000100088C0000086C0000084C0000082C00000CC
:1000200080C000007EC000007CC000007AC00000DC
:1000300078C0000076C0000074C0000072C00000EC
:1000400070C000006EC000006CC000006AC00000FC
:1000500068C0000066C0000064C0000062C000000C
:1000600060C000005EC000005CC000005AC000001C
:1000700058C0000056C0000054C0000052C000002C
:1000800050C000004EC000004CC000008EC30000F5
:1000900048C0000046C0000044C0000042C000004C
:1000A00040C000003EC000003CC000003AC000005C
:1000B00038C0000036C0000034C0000032C000006C
:1000C00030C000002EC000002CC000002AC000007C
:1000D00028C0000026C0000024C0000022C000008C
:1000E00020C0000011241FBECFEFD1E2DEBFCDBF84
:1000F00000E00CBF12E0A0E0B2E0E6E2F0E100E0D8
:100100000BBF02C007900D92A031B107D9F722E0D2
:10011000A0E1B2E001C01D92A431B207E1F7D4D250
:1001200080C76ECF87B1876F87B988B1807888B96B
:10013000089586E69EE00197F1F700004098419807
:1001400080E388B9429A8FEF97E40197F1F700C0F6
:100150000000429886E69EE00197F1F70000409883
:10016000419880E388B9429A8FEF97E40197F1F7BD
:1001700000C00000429886E69EE00197F1F700007B
:100180004098419880E388B9429A8FEF97E40197AD
:10019000F1F700C00000429886E69EE00197F1F773
:1001A00000004098419880E288B9429A86E69EE035
:1001B0000197F1F700004298089588B18F7088B9CF
:1001C00088B1962F907F892B88B940984198429AA0
:1001D0008FEF97E40197F1F700C00000429888B1D3
:1001E0008F7088B988B16295607F682B68B9409834
:1001F0004198429A8FEF97E40197F1F700C0000011
:1002000042980895CF93DF93EC0186E69EE0019734
:10021000F1F7000068E2CE01D0DF61E0CE01CDDF72
:1002200066E0CE01CADF6EE0CE01C7DF60E8CE0136
:10023000C4DFDF91CF910895CF93DF93EC0172DF9C
:10024000CE0177DFCE01DEDFDF91CF91089588B157
:100250008F7088B988B1962F907F892B88B9409A82
:100260004198429A8FEF97E40197F1F700C00000A0
:10027000429888B18F7088B988B16295607F682B89
:1002800068B9409A4198429A8FEF97E40197F1F745
:1002900000C000004298089560E88FCF08950F9342
:1002A0001F93CF93DF938C01EB016881662331F0BC
:1002B0002196C801CCDF69916111FBCFDF91CF910D
:1002C0001F910F910895623069F018F4613031F098
:1002D00015C0633059F0643069F010C06FE7640FE7
:1002E0006CCF08956FEB640F68CF089563E9640FD6
:1002F00064CF089563ED640F60CF0895611103C06A
:10030000411101C0C9CF0895FC011486ED59FF4F7A
:1003100022E030E031832083329624E130E03183E3
:100320002083369629E130E031832083349720E31F
:1003300030E031832083329620E930E0318320831E
:10034000349621E0208308951092800086E0809307
:100350008100109285001092840010928900109202
:10036000880010928B0010928A00109287001092E1
:10037000860010926F0016BA56980895611571059F
:1003800051F086E69EE00197F1F700006150710997
:1003900061157105B1F70895FC0184819581208173
:1003A0003181821B930B9387828708954F925F92CE
:1003B0006F927F92AF92BF92CF92DF92EF92FF92B5
:1003C0000F931F93CF93DF93EC01BEDF198618863E
:1003D00040D22B013C0104E810E05E0187E6A80E44
:1003E000B11C22C036D26B017C01C418D508E608C6
:1003F000F708F5016081718180E090E05FD220E034
:1004000030E040EC5FE3C0D22DD26C157D058E0547
:100410009F0550F4FE01EE59FF4F81E08083CF59D4
:10042000DF4F188280E044C0F80180819181892BE0
:10043000C9F20FD2688379838A839B83FE01EE59C8
:10044000FF4F108204E810E07E01F3E6EF0EF11C8E
:10045000F8018081918199878887F7016081718196
:10046000CE018CDFF801808191812885398528179C
:10047000390771F7EED16C837D838E839F83CE0124
:100480008BDF2A853B85FE01EB59FF4F80819181EF
:100490002817390718F43497108205C081E0FE014F
:1004A000EF59FF4F8083FE01EF59FF4F80818C870A
:1004B000DF91CF911F910F91FF90EF90DF90CF9040
:1004C000BF90AF907F906F905F904F900895CF92C4
:1004D000DF92EF92FF920F931F93CF93DF93EC0184
:1004E00000E010E0D12C7C0182E6E80EF11C0F2E1A
:1004F000FDE0CF2EF02DCE0159DF813079F5F701E7
:100500008081811110C00F5F1F4FC09ED001C19E1E
:10051000B00D1124AC0FBD1FFE018C2D01900D926A
:100520008A95E1F71BC0D394F1E0DF16B9F00530EE
:100530001105BCF4CE01C154D1094DE0409F90019A
:10054000419F300D1124C20FD31FFC01E65AFF4F0B
:1005500010820D978C179D07C1F703C00630110557
:1005600054F281E0DF91CF911F910F91FF90EF90B6
:10057000DF90CF9008954F925F926F927F928F920B
:100580009F92AF92BF92CF92DF92EF92FF920F9322
:100590001F93CF93DF93EC01298D211115C0FC012E
:1005A000DC01A55ABF4F20E030E0BC0163597F4F0A
:1005B000AC0147595F4F89599F4FAA24A3940F2E2E
:1005C000F3E0BF2EF02D0BC09C012A5D3F4F235F4F
:1005D0003F4FF9013D9740814111F9CFE0CF4F01E5
:1005E000118D111102C01C9240C0EB011881112322
:1005F00049F11216130634F5C584D684E784F088D1
:100600004480558066807780C418D508E608F708CE
:10061000EC0108811981169507952801612C712C30
:100620004C145D046E047F0448F5EA0108811981C9
:10063000169507952801612C712CC414D504E60485
:10064000F704F0F4EA01E880F980EC0108811981EF
:100650000E0D1F1D16950795E401EF88F88C0E15F9
:100660001F0510F4BC9201C0AC922F5F3F4F3D9626
:1006700011962630310509F0B2CF04C080E003C0E6
:1006800080E001C081E0DF91CF911F910F91FF9039
:10069000EF90DF90CF90BF90AF909F908F907F9022
:1006A0006F905F904F900895DC01A55ABF4FE62FE1
:1006B000F72F20E030E08D91805D81932F5F3F4FD9
:1006C00026303105C1F70895CF93DF93CDB7DEB75C
:1006D000C15AD1090FB6F894DEBF0FBECDBFCE010F
:1006E00081599F4FA9DDCE0101960EDE60E072E0D8
:1006F000CE0181599F4FD3DD7DD087E0E9E0F2E064
:10070000DE01A556BF4F01900D928A95E1F78AEA66
:10071000809304010F2EF3E0CF2EF2E0DF2EF02DB8
:100720007E0187E8E80EF11C05E011E0BB24BA94D5
:1007300003C0F801B0821082CE010196C8DE882382
:10074000C1F3CE01019617DFBE0165567F4FCE0182
:100750000196AADF7ED09F938F937F936F93DF9252
:10076000CF92FF92EF929BD1CF55DF4F1882C15AA3
:10077000D040CE0181599F4F8FDDBE0165567F4F1E
:10078000CE0181599F4F8BDD41E062E0CE0181595E
:100790009F4F99DDB701CE0181599F4F80DD0FB684
:1007A000F894DEBF0FBECDBFC7CF1F920F920FB61A
:1007B0000F9211248F939F93AF93BF938091100258
:1007C00090911102A0911202B09113020196A11D05
:1007D000B11D8093100290931102A0931202B09366
:1007E0001302BF91AF919F918F910F900FBE0F9009
:1007F0001F901895F8941092900085E080939100D6
:100800001092920081E08093710010921002109279
:10081000110210921202109213021092950010927F
:1008200094007894089520919400309195008091DF
:10083000100290911102A0911202B0911302DC01FA
:1008400099278827BC01CD01620F731F811D911D5F
:100850000895E9DF33D02FE836E34EE85DE394D026
:1008600001C0089570D088F09F5790F0B92F992754
:10087000B751A0F0D1F0660F771F881F991F1AF0AB
:10088000BA95C9F712C0B13081F077D0B1E00895C0
:1008900074C0672F782F8827B85F39F0B93FCCF341
:1008A000869577956795B395D9F73EF490958095A1
:1008B000709561957F4F8F4F9F4F0895E89409C0C1
:1008C00097FB3EF490958095709561957F4F8F4F83
:1008D0009F4F9923A9F0F92F96E9BB279395F69599
:1008E000879577956795B795F111F8CFFAF4BB0F17
:1008F00011F460FF1BC06F5F7F4F8F4F9F4F16C07B
:10090000882311F096E911C0772321F09EE8872F04
:10091000762F05C0662371F096E8862F70E060E0C0
:100920002AF09A95660F771F881FDAF7880F969539
:10093000879597F9089557FD9058440F551F59F022
:100940005F3F71F04795880F97FB991F61F09F3FBC
:1009500079F087950895121613061406551FF2CFE5
:100960004695F1DF08C0161617061806991FF1CF35
:1009700086957105610508940895E894BB2766275C
:100980007727CB0197F908950BD078C069D028F06C
:100990006ED018F0952309F05AC05FC01124EECF35
:1009A000CADFA0F3959FD1F3950F50E0551F629FCA
:1009B000F001729FBB27F00DB11D639FAA27F00DB8
:1009C000B11DAA1F649F6627B00DA11D661F829FDF
:1009D0002227B00DA11D621F739FB00DA11D621FC4
:1009E000839FA00D611D221F749F3327A00D611DE1
:1009F000231F849F600D211D822F762F6A2F1124C3
:100A00009F5750408AF0E1F088234AF0EE0FFF1F15
:100A1000BB1F661F771F881F91505040A9F79E3F4C
:100A2000510570F014C0AACF5F3FECF3983EDCF3A1
:100A3000869577956795B795F795E7959F5FC1F789
:100A4000FE2B880F911D9695879597F9089597F934
:100A50009F6780E870E060E008959FEF80EC089564
:100A600000240A941616170618060906089500248D
:100A70000A9412161306140605060895092E039407
:100A8000000C11F4882352F0BB0F40F4BF2B11F47B
:100A900060FF04C06F5F7F4F8F4F9F4F08950F938C
:100AA0001F93CF93DF93CDB7DEB72E970FB6F89491
:100AB000DEBF0FBECDBF0E891F8986E08C831A83EF
:100AC00009838FEF9FE79E838D83AE01465E5F4F64
:100AD000688D798DCE01019610D0EF81F885E00FF9
:100AE000F11F10822E960FB6F894DEBF0FBECDBF59
:100AF000DF91CF911F910F9108952F923F924F92C6
:100B00005F926F927F928F929F92AF92BF92CF929D
:100B1000DF92EF92FF920F931F93CF93DF93CDB7A6
:100B2000DEB72C970FB6F894DEBF0FBECDBF7C01A9
:100B30006B018A01FC0117821682838181FFB0C19B
:100B4000CE0101964C01F7019381F60193FD859149
:100B500093FF81916F01882309F49EC1853239F496
:100B600093FD859193FF81916F01853221F4B70147
:100B700090E0C7D1E8CF512C312C20E02032A0F4F6
:100B80008B3269F030F4803259F0833269F420619D
:100B90002CC08D3239F0803339F4216026C02260B8
:100BA000246023C0286021C027FD27C030ED380F06
:100BB0003A3078F426FF06C0FAE05F9E300D11242B
:100BC000532E13C08AE0389E300D1124332E20623C
:100BD0000CC08E3221F426FD5FC1206406C08C3625
:100BE00011F4206802C0883641F4F60193FD859126
:100BF00093FF81916F018111C1CF982F9F7D9554F3
:100C0000933028F40C5F1F4FFFE3F9830DC0833648
:100C100031F0833771F0833509F057C021C0F801F6
:100C2000808189830E5F1F4F44244394512C5401CB
:100C300014C03801F2E06F0E711CF801A080B18081
:100C400026FF03C0652D70E002C06FEF7FEFC50186
:100C50002C874CD12C0183012C852F77222E16C096
:100C60003801F2E06F0E711CF801A080B18026FF00
:100C700003C0652D70E002C06FEF7FEFC5012C87C8
:100C80002AD12C012C852068222E830123FC19C037
:100C9000832D90E048165906A0F4B70180E290E059
:100CA00030D13A94F5CFF50127FC859127FE81914B
:100CB0005F01B70190E025D131103A94F1E04F1A6D
:100CC00051084114510479F7DEC0843611F0893699
:100CD00031F5F80127FF07C060817181828193811E
:100CE0000C5F1F4F08C060817181882777FD809558
:100CF000982F0E5F1F4F2F76B22E97FF09C0909549
:100D00008095709561957F4F8F4F9F4F2068B22ED1
:100D10002AE030E0A40127D1A82EA81843C08537C7
:100D200029F42F7EB22E2AE030E025C0F22FF97F81
:100D3000BF2E8F36C1F018F4883579F0ADC08037FA
:100D400019F0883721F0A8C02F2F2061B22EB4FEF1
:100D50000DC08B2D8460B82E09C024FF0AC09F2FC0
:100D60009660B92E06C028E030E005C020E130E0F2
:100D700002C020E132E0F801B7FE07C06081718156
:100D8000828193810C5F1F4F06C06081718180E07A
:100D900090E00E5F1F4FA401E6D0A82EA818FB2DEF
:100DA000FF77BF2EB6FE0BC02B2D2E7FA51450F45F
:100DB000B4FE0AC0B2FC08C02B2D2E7E05C07A2CD2
:100DC0002B2D03C07A2C01C0752C24FF0DC0FE0111
:100DD000EA0DF11D8081803311F4297E09C022FFC4
:100DE00006C07394739404C0822F867809F07394BC
:100DF00023FD12C020FF06C05A2C731418F4530CA4
:100E00005718732C731460F4B70180E290E02C87BC
:100E100078D073942C85F6CF731410F4371801C072
:100E2000312C24FF11C0B70180E390E02C8769D0FA
:100E30002C8522FF16C021FF03C088E590E002C088
:100E400088E790E0B7010CC0822F867851F021FD31
:100E500002C080E201C08BE227FD8DE2B70190E085
:100E600050D0A51430F4B70180E390E04AD05A94F2
:100E7000F8CFAA94F401EA0DF11D8081B70190E04A
:100E800040D0A110F6CF332009F45DCEB70180E247
:100E900090E037D03A94F7CFF7018681978102C06E
:100EA0008FEF9FEF2C960FB6F894DEBF0FBECDBF2D
:100EB000DF91CF911F910F91FF90EF90DF90CF9036
:100EC000BF90AF909F908F907F906F905F904F906A
:100ED0003F902F900895FC010590615070400110E3
:100EE000D8F7809590958E0F9F1F0895FC01615053
:100EF000704001900110D8F7809590958E0F9F1F3C
:100F000008950F931F93CF93DF93182F092FEB01B1
:100F10008B8181FD03C08FEF9FEF20C082FF10C047
:100F20004E815F812C813D81421753077CF4E8811B
:100F3000F9819F012F5F3F4F39832883108306C0BB
:100F4000E885F985812F1995892B29F72E813F8115
:100F50002F5F3F4F3F832E83812F902FDF91CF91C3
:100F60001F910F910895FA01AA27283051F12031DD
:100F700081F1E8946F936E7F6E5F7F4F8F4F9F4F2D
:100F8000AF4FB1E03ED0B4E03CD0670F781F891F6F
:100F90009A1FA11D680F791F8A1F911DA11D6A0F3D
:100FA000711D811D911DA11D20D009F468943F91F0
:100FB0002AE0269F11243019305D3193DEF6CF01EF
:100FC0000895462F4770405D4193B3E00FD0C9F7B5
:100FD000F6CF462F4F70405D4A3318F0495D31FD22
:100FE0004052419302D0A9F7EACFB4E0A695979575
:100FF000879577956795BA95C9F70097610571054B
:1010000008959B01AC010A2E069457954795379594
:101010002795BA95C9F7620F731F841F951FA01DEE
:061020000895F894FFCFD3
:101026003A2900543A256C75004545454545450025
:00000001FF
