:1000000071C000008EC000008CC000008AC00000DB
:1000100088C0000086C0000084C0000082C00000CC
:1000200080C000007EC000007CC000007AC00000DC
:1000300078C0000076C0000074C0000072C00000EC
:1000400070C000006EC000006CC000006AC00000FC
:1000500068C0000066C0000064C0000062C000000C
:1000600060C000005EC000005CC000005AC000001C
:1000700058C0000056C0000054C0000052C000002C
:1000800050C000004EC000004CC000006BC3000018
:1000900048C0000046C0000044C0000042C000004C
:1000A00040C000003EC000003CC000003AC000005C
:1000B00038C0000036C0000034C0000032C000006C
:1000C00030C000002EC000002CC000002AC000007C
:1000D00028C0000026C0000024C0000022C000008C
:1000E00020C0000011241FBECFEFD1E2DEBFCDBF84
:1000F00000E00CBF12E0A0E0B2E0ECE5FAE000E0C6
:100100000BBF02C007900D92A430B107D9F722E0CF
:10011000A4E0B2E001C01D92A830B207E1F7EAD234
:100120009BC46ECF87B1876F87B988B1807888B953
:10013000089586E69EE00197F1F700004098419807
:1001400080E388B9429A8FEF97E40197F1F700C0F6
:100150000000429886E69EE00197F1F70000409883
:10016000419880E388B9429A8FEF97E40197F1F7BD
:1001700000C00000429886E69EE00197F1F700007B
:100180004098419880E388B9429A8FEF97E40197AD
:10019000F1F700C00000429886E69EE00197F1F773
:1001A00000004098419880E288B9429A86E69EE035
:1001B0000197F1F700004298089588B18F7088B9CF
:1001C00088B1962F907F892B88B940984198429AA0
:1001D0008FEF97E40197F1F700C00000429888B1D3
:1001E0008F7088B988B16295607F682B68B9409834
:1001F0004198429A8FEF97E40197F1F700C0000011
:1002000042980895CF93DF93EC0186E69EE0019734
:10021000F1F7000068E2CE01D0DF61E0CE01CDDF72
:1002200066E0CE01CADF6EE0CE01C7DF60E8CE0136
:10023000C4DFDF91CF910895CF93DF93EC0172DF9C
:10024000CE0177DFCE01DEDFDF91CF91089588B157
:100250008F7088B988B1962F907F892B88B9409A82
:100260004198429A8FEF97E40197F1F700C00000A0
:10027000429888B18F7088B988B16295607F682B89
:1002800068B9409A4198429A8FEF97E40197F1F745
:1002900000C000004298089560E88FCF08950F9342
:1002A0001F93CF93DF938C01EB016881662331F0BC
:1002B0002196C801CCDF69916111FBCFDF91CF910D
:1002C0001F910F910895FC011486ED59FF4F22E014
:1002D00030E031832083329624E130E03183208383
:1002E00036962AE030E031832083349728E730E0E7
:1002F00031832083329628E631E03183208334969F
:10030000108208951092800086E080938100109200
:10031000850010928400109289001092880010923B
:100320008B0010928A001092870010928600109223
:100330006F0016BA569808956115710551F086E65A
:100340009EE00197F1F70000615071096115710598
:10035000B1F70895FC018481958120813181821B50
:10036000930B9387828708954F925F926F927F924B
:10037000AF92BF92CF92DF92EF92FF920F931F93B3
:10038000CF93DF93EC01BEDF198618863FD22B0195
:100390003C0104E810E05E0187E6A80EB11C22C013
:1003A00035D26B017C01C418D508E608F708F501C1
:1003B0006081718180E090E05ED220E030E040EC2E
:1003C0005FE3BFD22CD26C157D058E059F0550F4DE
:1003D000FE01EE59FF4F81E08083CF59DF4F188235
:1003E00080E044C0F80180819181892BC9F20ED24E
:1003F000688379838A839B83FE01EE59FF4F1082C5
:1004000004E810E07E01F3E6EF0EF11CF8018081B4
:10041000918199878887F70160817181CE018CDF96
:10042000F80180819181288539852817390771F76E
:10043000EDD16C837D838E839F83CE018BDF2A85F4
:100440003B85FE01EB59FF4F8081918128173907C9
:1004500018F43497108205C081E0FE01EF59FF4F78
:100460008083FE01EF59FF4F80818C87DF91CF9110
:100470001F910F91FF90EF90DF90CF90BF90AF90C2
:100480007F906F905F904F900895BF92CF92DF92D0
:10049000EF92FF920F931F93CF93DF938C01EC01A8
:1004A0002D966C018BE5C80ED11C7801E2E6EE0EAC
:1004B000F11C0F2EFDE0BF2EF02DC80155DFF70116
:1004C000808181110CC0F801DE018B2D01900D920D
:1004D0008A95E1F72D96CC15DD0579F702C080E00D
:1004E00001C081E0DF91CF911F910F91FF90EF90BC
:1004F000DF90CF90BF9008952F923F924F925F92DE
:100500006F927F928F929F92AF92BF92CF92DF9223
:10051000EF92FF920F931F93CF93DF93CDB7DEB788
:100520002A970FB6F894DEBF0FBECDBF4C01DC0199
:1005300059968C91882309F4ABC0C4018696C12CCE
:10054000D12C96012F5F3F4F0D96FC013D97B08057
:10055000BB2011F06901F5CF121613060CF09AC0FA
:1005600080E090E0A40143595F4F0F2EFDE05F2E25
:10057000F02D529EB001539E700D1124680D791D0F
:10058000695E7F4FF401E759FF4FFE83ED838401DD
:1005900009591F4F18870F83F401E20FF31FE55A23
:1005A000FF4FAA24A39479011FEFE11AF10A5E9C80
:1005B00080015F9C100D1124D401A00FB11FBA87D8
:1005C000A9875C9C80015D9C100D1124800E911EFA
:1005D0006401B1E1CB0ED11CB11002C0108252C037
:1005E000DA011C911123C1F118161906ACF5A98581
:1005F000BA852D903D904D905C90D6016D907D9088
:100600008D909C9082017101E618F708080919097C
:10061000E982FA820B831C83AF81B8850D911C910E
:10062000169507951801412C512C69807A808B8092
:100630009C80261437044804590470F5AD81BE81AE
:100640000D911C91169507951801412C512C62149F
:1006500073048404950410F5AD81BE81ED90FC9087
:10066000AF81B8850D911C910E0D1F1D1695079534
:10067000DB01ED90FC900E151F0518F4B3E0B0837C
:1006800001C0A08201968217930709F0A5CF08C088
:1006900081E007C081E005C080E003C080E001C0C8
:1006A00081E02A960FB6F894DEBF0FBECDBFDF9172
:1006B000CF911F910F91FF90EF90DF90CF90BF905F
:1006C000AF909F908F907F906F905F904F903F90F2
:1006D0002F900895DC01A55ABF4FE62FF72F20E099
:1006E00030E08D91805D81932F5F3F4F2630310543
:1006F000C1F70895CF93DF93CDB7DEB7CD58D109B9
:100700000FB6F894DEBF0FBECDBFCE0181599F4F0B
:1007100093DDCE010196D7DD60E072E0CE01815914
:100720009F4FBDDD44D0CE010196AFDE8823D9F3C3
:10073000CE010196E1DEBE0169577F4FCE010196E1
:10074000C9DFC357DF4F1882CD58D040CE01815941
:100750009F4FA2DDBE0169577F4FCE0181599F4F48
:100760009EDDE1CF1F920F920FB60F9211248F934F
:100770009F93AF93BF938091040290910502A09143
:100780000602B09107020196A11DB11D80930402DB
:1007900090930502A0930602B0930702BF91AF9118
:1007A0009F918F910F900FBE0F901F901895F89406
:1007B0001092900085E0809391001092920081E069
:1007C00080937100109204021092050210920602AA
:1007D0001092070210929500109294007894089558
:1007E000209194003091950080910402909105022F
:1007F000A0910602B0910702DC0199278827BC016D
:10080000CD01620F731F811D911D0895E9DF33D063
:100810002FE836E34EE85DE394D001C0089570D030
:1008200088F09F5790F0B92F9927B751A0F0D1F0D9
:10083000660F771F881F991F1AF0BA95C9F712C063
:10084000B13081F077D0B1E0089574C0672F782F70
:100850008827B85F39F0B93FCCF3869577956795CF
:10086000B395D9F73EF490958095709561957F4F3B
:100870008F4F9F4F0895E89409C097FB3EF49095E1
:100880008095709561957F4F8F4F9F4F9923A9F069
:10089000F92F96E9BB279395F695879577956795F8
:1008A000B795F111F8CFFAF4BB0F11F460FF1BC03C
:1008B0006F5F7F4F8F4F9F4F16C0882311F096E9CF
:1008C00011C0772321F09EE8872F762F05C066237D
:1008D00071F096E8862F70E060E02AF09A95660F36
:1008E000771F881FDAF7880F9695879597F90895EF
:1008F00057FD9058440F551F59F05F3F71F04795D1
:10090000880F97FB991F61F09F3F79F087950895B5
:10091000121613061406551FF2CF4695F1DF08C0D4
:10092000161617061806991FF1CF869571056105F1
:1009300008940895E894BB2766277727CB0197F999
:1009400008950BD078C069D028F06ED018F09523A8
:1009500009F05AC05FC01124EECFCADFA0F3959F03
:10096000D1F3950F50E0551F629FF001729FBB2796
:10097000F00DB11D639FAA27F00DB11DAA1F649F42
:100980006627B00DA11D661F829F2227B00DA11DF5
:10099000621F739FB00DA11D621F839FA00D611D7B
:1009A000221F749F3327A00D611D231F849F600D9C
:1009B000211D822F762F6A2F11249F5750408AF0D5
:1009C000E1F088234AF0EE0FFF1FBB1F661F771F61
:1009D000881F91505040A9F79E3F510570F014C0F8
:1009E000AACF5F3FECF3983EDCF386957795679549
:1009F000B795F795E7959F5FC1F7FE2B880F911D7F
:100A00009695879597F9089597F99F6780E870E024
:100A100060E008959FEF80EC089500240A94161674
:100A2000170618060906089500240A9412161306DC
:100A3000140605060895092E0394000C11F488236A
:100A400052F0BB0F40F4BF2B11F460FF04C06F5F86
:0C0A50007F4F8F4F9F4F0895F894FFCF09
:040A5C003A29000033
:00000001FF
