:10000000BFC00000DDC00000DBC00000D9C00000A0
:10001000D7C00000D5C00000D3C00000D1C0000090
:10002000CFC00000CDC00000CBC00000C9C00000A0
:10003000C7C00000C5C00000C3C00000C1C00000B0
:10004000BFC00000BDC00000BBC00000B9C00000C0
:10005000B7C00000B5C00000B3C00000B1C00000D0
:10006000AFC00000ADC00000ABC00000A9C00000E0
:10007000A7C00000A5C00000A3C00000A1C00000F0
:100080009FC000009DC000009BC00000B7C60000DC
:1000900097C0000095C0000093C0000091C0000010
:1000A0008FC000008DC000008BC0000089C0000020
:1000B00087C0000085C0000083C0000081C0000030
:1000C0007FC000007DC000007BC0000079C0000040
:1000D00077C0000075C0000073C0000071C0000050
:1000E0006FC000009103B2038603B20324032D0303
:1000F000370341034B0355035E03680372037C031C
:100100009C03B203B203B203B203A703B2035702C4
:100110005E026702700278027D0286028E029602FB
:100120009C02A502AD02B602BC02C302CA02D302FF
:10013000DC02E402EB02F002F80201030903B2035D
:100140001B03B203B203B203B203B203B203B2039E
:10015000B203B203B203B203B203B203B203B203F7
:10016000B203B203B203B203B203B203B203B203E7
:10017000B203B203B203B203B203B203B203120377
:1001800011241FBECFEFD1E2DEBFCDBF00E00CBF18
:1001900012E0A0E0B2E0EEE5F7E100E00BBF02C044
:1001A00007900D92A032B107D9F722E0A0E2B2E0A9
:1001B00001C01D92A432B207E1F755D50C94AD0BE6
:1001C0001FCF87B1876F87B988B1807888B90895C4
:1001D00086E69EE00197F1F700004098419880E3A1
:1001E00088B9429A8FEF97E40197F1F700C00000B9
:1001F000429886E69EE00197F1F70000409841980A
:1002000080E388B9429A8FEF97E40197F1F700C035
:100210000000429886E69EE00197F1F700004098C2
:10022000419880E388B9429A8FEF97E40197F1F7FC
:1002300000C00000429886E69EE00197F1F70000BA
:100240004098419880E288B9429A86E69EE00197FC
:10025000F1F700004298089588B18F7088B988B18D
:10026000962F907F892B88B940984198429A8FEFBA
:1002700097E40197F1F700C00000429888B18F70B1
:1002800088B988B16295607F682B68B940984198B9
:10029000429A8FEF97E40197F1F700C0000042986F
:1002A0000895CF93DF93EC0186E69EE00197F1F786
:1002B000000068E2CE01D0DF61E0CE01CDDF66E074
:1002C000CE01CADF6EE0CE01C7DF60E8CE01C4DF39
:1002D000DF91CF910895CF93DF93EC0172DFCE01D0
:1002E00077DFCE01DEDFDF91CF91089588B18F7087
:1002F00088B988B1962F907F892B88B9409A419808
:10030000429A8FEF97E40197F1F700C000004298FE
:1003100088B18F7088B988B16295607F682B68B9A1
:10032000409A4198429A8FEF97E40197F1F700C005
:1003300000004298089560E88FCF08950F931F93AF
:10034000CF93DF938C01EB016881662331F0219616
:10035000C801CCDF69916111FBCFDF91CF911F9173
:100360000F910895623069F018F4613031F015C0D2
:10037000633059F0643069F010C06FE7640F6CCFE0
:1003800008956FEB640F68CF089563E9640F64CF3D
:10039000089563ED640F60CF0895611103C04111AA
:1003A00001C0C9CF08953B9A43980895FC01718319
:1003B0006083F9CF08953B9A08953B980895CF93B1
:1003C000DF93EC01F8DF88819981892BC9F4CE0194
:1003D000F4DF88819981892B39F418C086E69EE084
:1003E0000197F1F70000FACF86E69EE00197F1F75A
:1003F0000000F4CF86E69EE00197F1F70000FACF07
:1004000086E69EE00197F1F70000F4CFDF91CF91EF
:100410000895CF93DF93EC01CEDF888199819C0111
:10042000220F331F820F931F892BC9F4CE01C5DF22
:1004300088819981892B39F418C086E69EE001975E
:10044000F1F70000FACF86E69EE00197F1F7000091
:10045000F4CF86E69EE00197F1F70000FACF86E63A
:100460009EE00197F1F70000F4CFDF91CF9108955E
:10047000AF92BF92CF92DF92EF92FF920F931F93B2
:10048000CF93DF93CDB7DEB727970FB6F894DEBFD3
:100490000FBECDBF5C01862F90E095D68C978E3431
:1004A000910508F05FC18E589F4FFC0186C681E31D
:1004B000898383E38A8381E090E06BC183E389834E
:1004C00081E38A838B838C8383E090E062C193E332
:1004D000998381E38A839B838C8383E090E059C175
:1004E00083E3898381E38A838B8382E090E051C137
:1004F00081E3898380E090E04CC181E389838A8332
:1005000093E39B838C8383E090E043C183E38983FF
:100510008A8381E38B8382E090E03BC181E389831E
:100520008A838B838C8383E090E033C181E389836A
:100530008A8381E090E02DC181E3898383E38A830C
:100540008B838C8383E090E024C183E3898391E3F0
:100550009A838B8382E090E01CC181E3898393E3DB
:100560009A838B838C8383E090E013C183E3898338
:100570008A8381E090E00DC183E3898381E38A83EC
:1005800081E090E006C183E389838A838B8382E0E4
:1005900090E0FFC081E3898393E39A839B838C83FC
:1005A00083E090E0F6C083E389838A8391E39B83B1
:1005B0008C8383E090E0EDC081E3898393E39A83A9
:1005C0008B8382E090E0E5C081E389838A838B831B
:1005D00082E090E0DEC083E3898380E090E0D9C0D0
:1005E00081E389838A8383E38B8382E090E0D1C0B7
:1005F00081E389838A838B8383E38C8383E090E028
:10060000C8C081E3898383E38A838B8382E090E09F
:10061000C0C083E3898391E39A839B838C8383E0C7
:1006200090E0B7C083E3898391E39A838B838C83C3
:1006300083E090E0AEC083E389838A8381E38B8388
:100640008C8383E090E0A5C083E389838A838B83D6
:100650008C838D8384E090E09CC081E3898383E375
:100660008A838B838C838D8384E090E092C081E3C6
:1006700089838A8383E38B838D838C8383E090E0FB
:1006800088C081E389838A838B8383E38C838D8312
:1006900084E090E07EC081E389838A838B838C83AE
:1006A00083E38D8384E090E074C081E389838A834F
:1006B0008B838C838D8384E090E06BC083E389839C
:1006C00081E38A838B838C838D8384E090E061C097
:1006D00083E389838A8381E38B838C838D8384E0A6
:1006E00090E057C083E389838A838B8381E38C8383
:1006F0008D8384E090E04DC083E389838A838B837C
:100700008C8381E38D8384E090E043C091E39983FF
:1007100083E38A839B838C839D838E8385E090E033
:1007200038C083E389838A8391E39B839C838D8391
:100730008E8385E090E02DC083E389838A838B8359
:1007400081E38C838D838E8385E090E022C081E3FA
:1007500089838A8393E39B839C838D838E8385E047
:1007600090E017C01982CC24C394D12C1AC0F70191
:1007700081917F01813319F4C50121DE04C08333E7
:1007800011F4C50146DE0F5F1F4F0C151D057CF3EC
:100790000EC06C01FFEFCF1ADF0AFE01E80FF91F50
:1007A0001182CE0101967C0100E010E0E0CF279697
:1007B0000FB6F894DEBF0FBECDBFDF91CF911F9172
:1007C0000F91FF90EF90DF90CF90BF90AF90089582
:1007D00081B18F6081B982B112B8EAE0F1E0808125
:1007E00088618083EBE0F1E08081886180830895F7
:1007F00086E082B92FEF8FEF99E52150804090403D
:10080000E1F700C0000012B8089589E082B92FEF27
:100810008FEF99E5215080409040E1F700C0000043
:1008200012B80895663621F4E3DF80E090E0089581
:10083000623621F4EADF80E090E008958FEF9FEFC9
:100840000895C6CF0895FC011486ED59FF4F22E0AC
:1008500030E0318320833A962FE030E031832083EB
:10086000349720E530E031832083329620EF30E06A
:1008700031832083369728E230E03183208332961B
:1008800028E631E0318320833A9621E020833297B5
:1008900022E330E03183208308951092800086E0C7
:1008A000809381001092850010928400109289003C
:1008B0001092880010928B0010928A00109287008C
:1008C0001092860010926F0016BA5698089561151E
:1008D000710551F086E69EE00197F1F70000615046
:1008E000710961157105B1F70895FC018481958145
:1008F00020813181821B930B9387828708954F92C9
:100900005F926F927F92AF92BF92CF92DF92EF92FF
:10091000FF920F931F93CF93DF93EC01BEDF1986F5
:100920001886C0D22B013C0104E810E05E0189E684
:10093000A80EB11C21C0B6D26B017C01C418D50829
:10094000E608F708F5016081718180E090E022D32C
:1009500020E030E040EC5FE383D3F0D26C157D05FE
:100960008E059F0548F4FE01EE59FF4F81E080831C
:10097000CF59DF4F88834AC0F80180819181892B4C
:10098000D1F290D2688379838A839B83FE01EE59EA
:10099000FF4F108204E810E07E01F3E6EF0EF11C39
:1009A000F8018081918199878887F7016081718141
:1009B000CE018DDFF8018081918128853985281746
:1009C000390771F76FD26C837D838E839F83CE014D
:1009D0008CDF8A859B85FE01EB59FF4F2081318199
:1009E0008217930748F432962081318128173907FE
:1009F00018F43697108205C081E0FE01EF59FF4FD1
:100A00008083FE01EF59FF4F80818C87DF91CF916A
:100A10001F910F91FF90EF90DF90CF90BF90AF901C
:100A20007F906F905F904F900895CF92DF92EF92FA
:100A3000FF920F931F93CF93DF93EC0100E010E040
:100A40007C0182E6E80EF11C0F2EFDE0DF2EF02D7A
:100A5000CC24C394CE0153DF8130C1F5F7018081EE
:100A6000882321F005301105ECF034C0C80101964F
:100A7000D89ED001D99EB00D1124AC0FBD1FFE0130
:100A80002D2D01900D922A95E1F7D09EF001D19E77
:100A9000F00D1124EC0FFD1FC18E8C0186309105E5
:100AA000CCF4D8CFCE01C154D1094DE0409F900184
:100AB000419F300D11242C0F3D1FFC01E65AFF4FC2
:100AC00010820D9782179307C1F704C006301105F5
:100AD0000CF4C0CF81E0DF91CF911F910F91FF9077
:100AE000EF90DF90CF9008954F925F926F927F9238
:100AF0008F929F92AF92BF92CF92DF92EF92FF922E
:100B00000F931F93CF93DF93FC01E55AFF4F1082A1
:100B10003196108231961082319610823196108271
:100B200031961082EC01298D211115C0FC01DC01E8
:100B3000A55ABF4F20E030E0BC016F587F4FAC0199
:100B400047595F4FAA24A3940F2EF3E0BF2EF02D38
:100B500085599F4F0BC09C012A5D3F4F235F3F4F3C
:100B6000F9013D9740814111F9CFE0CF4F01118D3F
:100B7000111102C01C923CC0EB011881112309F431
:100B800046C01216130634F5C584D684E784F0886F
:100B90004480558066807780C418D508E608F70839
:100BA000EA0108811981169507952801612C712C9D
:100BB0004C145D046E047F0420F5EC01088119815A
:100BC000169507952801612C712CC414D504E604F0
:100BD000F704C8F4EA0108811981000F111FE4012C
:100BE000EF88F88CE016F10610F0BC9201C0AC92D0
:100BF0002F5F3F4F3D9611962630310509F0B6CF55
:100C000004C080E00FC080E00DC081E00BC0EA01AD
:100C100008811981000F111FE788F08CE016F1069A
:100C200020F7E5CFDF91CF911F910F91FF90EF90CB
:100C3000DF90CF90BF90AF909F908F907F906F90FC
:100C40005F904F900895DC01A55ABF4FE62FF72F14
:100C500020E030E08D91805D81932F5F3F4F263003
:100C60003105C1F70895CF93DF93CDB7DEB7CC5AE6
:100C7000D1090FB6F894DEBF0FBECDBFCE018D589F
:100C80009F4F29DBCE010196DEDD40E051EE60E0B2
:100C900070E0CE018A559F4F0ED1CE0184559F4FF3
:100CA000D0DD68E270E0CE0186559F4F7FDB66E6BF
:100CB000CE0186559F4FDCDB60E072E0CE018D589F
:100CC0009F4F3CDB63E072E0CE018A559F4F22D1FB
:100CD000BAD0C156DF4F188219821A821B82CF59AF
:100CE000D040CD55DF4F188219821A82C35AD040A6
:100CF00066E6CE0184559F4F95DD0F2EF4E1EF2E71
:100D0000F2E0FF2EF02D8E0105571F4FCE01019608
:100D10008CDECE010196E8DED82EBE0161567F4FF3
:100D2000CE01019690DFC056DF4F9881C05AD04067
:100D3000903309F456C0DD2009F453C04AE062E064
:100D4000CE018D589F4F0EDB61E172E0CE018D58D0
:100D50009F4FF4DAA7D09F938F937F936F93FF9267
:100D6000EF921F930F9337D2CB55DF4F1882C55A9E
:100D7000D040BE0161567F4FCE018A559F4FCAD0E9
:100D80006AE172E0CE018A559F4FC4D0B801CE010E
:100D90008A559F4FBFD06DE0CE018A559F4FB2D08C
:100DA0006AE0CE018A559F4FADD0CE018D589F4F3E
:100DB000C2DABE0161567F4FCE018D589F4FBEDA19
:100DC00041E062E0CE018D589F4FCCDAB801CE01F0
:100DD0008D589F4FB3DA0FB6F894DEBF0FBECDBF6C
:100DE00095CF4AE062E0CE018D589F4FBBDA6CE1AF
:100DF00072E0CE018D589F4FA1DA88CF1F920F92DB
:100E00000FB60F9211248F939F93AF93BF9380914E
:100E1000200290912102A0912202B091230201961A
:100E2000A11DB11D8093200290932102A093220264
:100E3000B0932302BF91AF919F918F910F900FBEFE
:100E40000F901F901895F8941092900085E0809371
:100E500091001092920081E0809371001092200224
:100E600010922102109222021092230210929500F9
:100E700010929400789408952091940030919500F8
:100E80008091200290912102A0912202B091230230
:100E9000DC0199278827BC01CD01620F731F811DDA
:100EA000911D0895E9DF76D02FE836E34EE85DE343
:100EB000D7D044C00895CF92DF92EF92FF92CF93A4
:100EC000DF93EC016A017B0160E070E18EE090E06D
:100ED000A701960150D1215031093093C5002093CC
:100EE000C40088E18093C10086E08093C200C8827C
:100EF000D982EA82FB82DF91CF91FF90EF90DF9061
:100F0000CF900895E0ECF0E0808185FFFDCF609305
:100F1000C60008950F931F93CF93DF938C01EB01CD
:100F20006881662331F02196C801ECDF6991611177
:100F3000FBCFDF91CF911F910F91089570D088F072
:100F40009F5790F0B92F9927B751A0F0D1F0660FB5
:100F5000771F881F991F1AF0BA95C9F712C0B130D0
:100F600081F077D0B1E0089574C0672F782F88277B
:100F7000B85F39F0B93FCCF3869577956795B3950F
:100F8000D9F73EF490958095709561957F4F8F4F7E
:100F90009F4F0895E89409C097FB3EF49095809583
:100FA000709561957F4F8F4F9F4F9923A9F0F92F2F
:100FB00096E9BB279395F695879577956795B795AD
:100FC000F111F8CFFAF4BB0F11F460FF1BC06F5F93
:100FD0007F4F8F4F9F4F16C0882311F096E911C0A5
:100FE000772321F09EE8872F762F05C0662371F0C6
:100FF00096E8862F70E060E02AF09A95660F771FDA
:10100000881FDAF7880F9695879597F9089557FD09
:101010009058440F551F59F05F3F71F04795880F66
:1010200097FB991F61F09F3F79F0879508951216FD
:1010300013061406551FF2CF4695F1DF08C01616A9
:1010400017061806991FF1CF86957105610508945A
:101050000895E894BB2766277727CB0197F9089571
:101060000BD078C069D028F06ED018F0952309F025
:101070005AC05FC01124EECFCADFA0F3959FD1F311
:10108000950F50E0551F629FF001729FBB27F00D36
:10109000B11D639FAA27F00DB11DAA1F649F66278B
:1010A000B00DA11D661F829F2227B00DA11D621FDA
:1010B000739FB00DA11D621F839FA00D611D221F94
:1010C000749F3327A00D611D231F849F600D211D78
:1010D000822F762F6A2F11249F5750408AF0E1F01B
:1010E00088234AF0EE0FFF1FBB1F661F771F881F64
:1010F00091505040A9F79E3F510570F014C0AACFFF
:101100005F3FECF3983EDCF3869577956795B7954E
:10111000F795E7959F5FC1F7FE2B880F911D969578
:10112000879597F9089597F99F6780E870E060E0E8
:1011300008959FEF80EC089500240A941616170670
:1011400018060906089500240A94121613061406B8
:1011500005060895092E0394000C11F4882352F01B
:10116000BB0F40F4BF2B11F460FF04C06F5F7F4FD3
:101170008F4F9F4F0895A1E21A2EAA1BBB1BFD01A2
:101180000DC0AA1FBB1FEE1FFF1FA217B307E40766
:10119000F50720F0A21BB30BE40BF50B661F771FBE
:1011A000881F991F1A9469F760957095809590959E
:1011B0009B01AC01BD01CF010895EE0FFF1F05900B
:1011C000F491E02D19949111089581568A5108F4F3
:1011D0008052855808950F931F93CF93DF93CDB717
:1011E000DEB72E970FB6F894DEBF0FBECDBF0E89C7
:1011F0001F8986E08C831A8309838FEF9FE79E8384
:101200008D83AE01465E5F4F688D798DCE0101966C
:1012100010D0EF81F885E00FF11F10822E960FB6E7
:10122000F894DEBF0FBECDBFDF91CF911F910F911C
:1012300008952F923F924F925F926F927F928F927A
:101240009F92AF92BF92CF92DF92EF92FF920F9355
:101250001F93CF93DF93CDB7DEB72C970FB6F894DB
:10126000DEBF0FBECDBF7C016B018A01FC0117827E
:101270001682838181FFB0C1CE0101964C01F70136
:101280009381F60193FD859193FF81916F018823EE
:1012900009F49EC1853239F493FD859193FF8191C4
:1012A0006F01853221F4B70190E0C7D1E8CF512C0E
:1012B000312C20E02032A0F48B3269F030F48032FF
:1012C00059F0833269F420612CC08D3239F08033BB
:1012D00039F4216026C02260246023C0286021C028
:1012E00027FD27C030ED380F3A3078F426FF06C0CE
:1012F000FAE05F9E300D1124532E13C08AE0389E11
:10130000300D1124332E20620CC08E3221F426FDC4
:101310005FC1206406C08C3611F4206802C0883694
:1013200041F4F60193FD859193FF81916F01811145
:10133000C1CF982F9F7D9554933028F40C5F1F4F99
:10134000FFE3F9830DC0833631F0833771F08335C5
:1013500009F057C021C0F801808189830E5F1F4FBB
:1013600044244394512C540114C03801F2E06F0E10
:10137000711CF801A080B18026FF03C0652D70E0CC
:1013800002C06FEF7FEFC5012C874CD12C01830188
:101390002C852F77222E16C03801F2E06F0E711CBB
:1013A000F801A080B18026FF03C0652D70E002C067
:1013B0006FEF7FEFC5012C872AD12C012C85206887
:1013C000222E830123FC19C0832D90E04816590674
:1013D000A0F4B70180E290E030D13A94F5CFF50166
:1013E00027FC859127FE81915F01B70190E025D10F
:1013F00031103A94F1E04F1A51084114510479F731
:10140000DEC0843611F0893631F5F80127FF07C0B8
:1014100060817181828193810C5F1F4F08C0608160
:101420007181882777FD8095982F0E5F1F4F2F764B
:10143000B22E97FF09C090958095709561957F4F6A
:101440008F4F9F4F2068B22E2AE030E0A40127D1B1
:10145000A82EA81843C0853729F42F7EB22E2AE083
:1014600030E025C0F22FF97FBF2E8F36C1F018F47F
:10147000883579F0ADC0803719F0883721F0A8C0E1
:101480002F2F2061B22EB4FE0DC08B2D8460B82E9C
:1014900009C024FF0AC09F2F9660B92E06C028E01D
:1014A00030E005C020E130E002C020E132E0F80188
:1014B000B7FE07C060817181828193810C5F1F4FED
:1014C00006C06081718180E090E00E5F1F4FA40133
:1014D000E6D0A82EA818FB2DFF77BF2EB6FE0BC0B6
:1014E0002B2D2E7FA51450F4B4FE0AC0B2FC08C008
:1014F0002B2D2E7E05C07A2C2B2D03C07A2C01C0FB
:10150000752C24FF0DC0FE01EA0DF11D8081803392
:1015100011F4297E09C022FF06C07394739404C09D
:10152000822F867809F0739423FD12C020FF06C035
:101530005A2C731418F4530C5718732C731460F44A
:10154000B70180E290E02C8778D073942C85F6CF99
:10155000731410F4371801C0312C24FF11C0B701E7
:1015600080E390E02C8769D02C8522FF16C021FFF4
:1015700003C088E590E002C088E790E0B7010CC0A6
:10158000822F867851F021FD02C080E201C08BE2FB
:1015900027FD8DE2B70190E050D0A51430F4B701DB
:1015A00080E390E04AD05A94F8CFAA94F401EA0D6F
:1015B000F11D8081B70190E040D0A110F6CF33201B
:1015C00009F45DCEB70180E290E037D03A94F7CFCE
:1015D000F7018681978102C08FEF9FEF2C960FB69F
:1015E000F894DEBF0FBECDBFDF91CF911F910F9159
:1015F000FF90EF90DF90CF90BF90AF909F908F9033
:101600007F906F905F904F903F902F900895FC01D6
:101610000590615070400110D8F7809590958E0F1D
:101620009F1F0895FC016150704001900110D8F790
:10163000809590958E0F9F1F08950F931F93CF93C2
:10164000DF93182F092FEB018B8181FD03C08FEFF2
:101650009FEF20C082FF10C04E815F812C813D81B1
:10166000421753077CF4E881F9819F012F5F3F4FB8
:1016700039832883108306C0E885F985812F199561
:10168000892B29F72E813F812F5F3F4F3F832E8388
:10169000812F902FDF91CF911F910F910895FA0123
:1016A000AA27283051F1203181F1E8946F936E7FA1
:1016B0006E5F7F4F8F4F9F4FAF4FB1E03ED0B4E092
:1016C0003CD0670F781F891F9A1FA11D680F791FD3
:1016D0008A1F911DA11D6A0F711D811D911DA11DE4
:1016E00020D009F468943F912AE0269F11243019F4
:1016F000305D3193DEF6CF010895462F4770405D8F
:101700004193B3E00FD0C9F7F6CF462F4F70405D3D
:101710004A3318F0495D31FD4052419302D0A9F798
:10172000EACFB4E0A6959795879577956795BA9592
:10173000C9F700976105710508959B01AC010A2E58
:1017400006945795479537952795BA95C9F7620F2F
:0E175000731F841F951FA01D0895F894FFCFEE
:10175E003A2900496E697469616C697365640D0A92
:10176E00004F6B00543A256C75000900457200005D
:00000001FF
