:10000000CBC00000E9C00000E7C00000E5C0000070
:10001000E3C00000E1C00000DFC00000DDC0000060
:10002000DBC00000D9C00000D7C00000D5C0000070
:10003000D3C00000D1C00000CFC00000CDC0000080
:10004000CBC00000C9C00000C7C00000C5C0000090
:10005000C3C00000C1C00000BFC00000BDC00000A0
:10006000BBC00000B9C00000B7C00000B5C00000B0
:10007000B3C00000B1C00000AFC00000ADC00000C0
:10008000ABC00000A9C00000A7C0000035C7000039
:10009000A3C00000A1C000009FC000009DC00000E0
:1000A0009BC0000099C0000097C0000095C00000F0
:1000B00093C0000091C000008FC000008DC0000000
:1000C0008BC0000089C0000087C0000085C0000010
:1000D00083C0000081C000007FC000007DC0000020
:1000E0007BC000004302AF03AF03AF03AF03AF0316
:1000F000AF03AF03AF03AF03AF03AF038E03AF0391
:100100008303AF0321032A0334033E03480352034E
:100110005B0365036F0379039903AF03AF03AF0379
:10012000AF03A403AF0354025B0264026D027502C5
:100130007A0283028B0293029902A202AA02B302FC
:10014000B902C002C702D002D902E102E802ED0200
:10015000F502FE020603AF031803AF03AF03AF03BC
:10016000AF03AF03AF03AF03AF03AF03AF03AF03FF
:10017000AF03AF03AF03AF03AF03AF03AF03AF03EF
:10018000AF03AF03AF03AF03AF03AF03AF03AF03DF
:10019000AF03AF03AF030F0311241FBECFEFD1E2B4
:1001A000DEBFCDBF00E00CBF12E0A0E0B2E0EAE5A8
:1001B000F8E100E00BBF02C007900D92A436B10732
:1001C000D9F722E0A4E6B2E001C01D92A836B2073A
:1001D000E1F7AFD50C942B0C13CF87B1876F87B99C
:1001E00088B1807888B9089586E69EE00197F1F796
:1001F00000004098419880E388B9429A8FEF97E4D5
:100200000197F1F700C00000429886E69EE0019752
:10021000F1F700004098419880E388B9429A8FEF47
:1002200097E40197F1F700C00000429886E69EE04F
:100230000197F1F700004098419880E388B9429A0D
:100240008FEF97E40197F1F700C00000429886E62F
:100250009EE00197F1F700004098419880E288B94C
:10026000429A86E69EE00197F1F7000042980895D1
:1002700088B18F7088B988B1962F907F892B88B903
:1002800040984198429A8FEF97E40197F1F700C0A8
:100290000000429888B18F7088B988B16295607FFC
:1002A000682B68B940984198429A8FEF97E401977C
:1002B000F1F700C0000042980895CF93DF93EC015E
:1002C00086E69EE00197F1F7000068E2CE01D0DFFC
:1002D00061E0CE01CDDF66E0CE01CADF6EE0CE0187
:1002E000C7DF60E8CE01C4DFDF91CF910895CF93DF
:1002F000DF93EC0172DFCE0177DFCE01DEDFDF912D
:10030000CF91089588B18F7088B988B1962F907F6A
:10031000892B88B9409A4198429A8FEF97E40197C8
:10032000F1F700C00000429888B18F7088B988B199
:100330006295607F682B68B9409A4198429A8FEF26
:1003400097E40197F1F700C000004298089560E833
:100350008FCF08950F931F93CF93DF938C01EB0101
:100360006881662331F02196C801CCDF6991611163
:10037000FBCFDF91CF911F910F910895EBCF08959F
:10038000623069F018F4613031F015C0633059F013
:10039000643069F010C06FE7640F6ACF08956FEBA7
:1003A000640F66CF089563E9640F62CF089563ED2B
:1003B000640F5ECF0895611103C0411101C0C7CF22
:1003C0000895A0CF08953B9A43980895FC01718346
:1003D0006083F9CF0895439A08954398089561156D
:1003E000710551F086E69EE00197F1F7000061503B
:1003F000710961157105B1F70895CF93DF93EC0191
:10040000EADF68817981CE01EADFCE01E6DF68812B
:100410007981CE01E4DFDF91CF910895CF93DF930F
:10042000EC01D9DF88819981BC01660F771F680FC5
:10043000791FCE01D4DFCE01D0DF68817981CE0172
:10044000CEDFDF91CF910895AF92BF92CF92DF922E
:10045000EF92FF920F931F93CF93DF93CDB7DEB749
:1004600027970FB6F894DEBF0FBECDBF5C01862F75
:1004700090E027D780978A35910508F070C18E5893
:100480009F4FFC0118C7C501A8DFF501808191814C
:10049000BC01660F771F660F771F660F771F681BFB
:1004A000790BC5019CDF87C181E3898383E38A835C
:1004B00081E090E072C183E3898381E38A838B8347
:1004C0008C8383E090E069C193E3998381E38A831D
:1004D0009B838C8383E090E060C183E3898381E325
:1004E0008A838B8382E090E058C181E3898380E036
:1004F00090E053C181E389838A8393E39B838C8358
:1005000083E090E04AC183E389838A8381E38B831C
:1005100082E090E042C181E389838A838B838C836C
:1005200083E090E03AC181E389838A8381E090E0AF
:1005300034C181E3898383E38A838B838C8383E063
:1005400090E02BC183E3898391E39A838B8382E0DC
:1005500090E023C181E3898393E39A838B838C8327
:1005600083E090E01AC183E389838A8381E090E08D
:1005700014C183E3898381E38A8381E090E00DC124
:1005800083E389838A838B8382E090E006C181E3E1
:10059000898393E39A839B838C8383E090E0FDC0FF
:1005A00083E389838A8391E39B838C8383E090E058
:1005B000F4C081E3898393E39A838B8382E090E0A4
:1005C000ECC081E389838A838B8382E090E0E5C07D
:1005D00083E3898380E090E0E0C081E389838A83BC
:1005E00083E38B8382E090E0D8C081E389838A83B0
:1005F0008B8383E38C8383E090E0CFC081E38983A6
:1006000083E38A838B8382E090E0C7C083E389839E
:1006100091E39A839B838C8383E090E0BEC083E365
:10062000898391E39A838B838C8383E090E0B5C0C8
:1006300083E389838A8381E38B838C8383E090E0E7
:10064000ACC083E389838A838B838C838D8384E02E
:1006500090E0A3C081E3898383E38A838B838C83C7
:100660008D8384E090E099C081E389838A8383E36A
:100670008B838D838C8383E090E08FC081E38983BB
:100680008A838B8383E38C838D8384E090E085C0B1
:1006900081E389838A838B838C8383E38D8384E0E6
:1006A00090E07BC081E389838A838B838C838D83F5
:1006B00084E090E072C083E3898381E38A838B8343
:1006C0008C838D8384E090E068C083E389838A8390
:1006D00081E38B838C838D8384E090E05EC083E331
:1006E00089838A838B8381E38C838D8384E090E08C
:1006F00054C083E389838A838B838C8381E38D83D6
:1007000084E090E04AC091E3998383E38A839B83EA
:100710008C839D838E8385E090E03FC083E3898353
:100720008A8391E39B839C838D838E8385E090E015
:1007300034C083E389838A838B8381E38C838D83B5
:100740008E8385E090E029C081E389838A8393E3E7
:100750009B839C838D838E8385E090E01EC01A82EC
:10076000CC24C394D12C21C0F70181917F01813326
:1007700019F4C50142DE04C0833311F4C5014EDE15
:100780000F5F1F4F0C151D057CF3F5016081718112
:10079000660F771FC50123DE0EC06C01FFEFCF1A75
:1007A000DF0AFE01EC0DFD1D1182CE0101967C01D8
:1007B00000E010E0D9CF27960FB6F894DEBF0FBE49
:1007C000CDBFDF91CF911F910F91FF90EF90DF9000
:1007D000CF90BF90AF9008950F931F93CF93DF9367
:1007E0008C01EB016881662331F02196C8012CDE73
:1007F00069916111FBCFDF91CF911F910F91089506
:10080000EBCF0895DC018FE390E08D939D93E0E0C2
:10081000F2E001900D928A95E1F70895FB0120E046
:1008200030E040E050E06191613329F4440F551FFE
:100830004F5F5F4F0CC0633329F44F5F5F4F440F2E
:10084000551F05C0FC01E40FF51F828108952F5F3D
:100850003F4F2730310539F780E2089581B18F602D
:1008600081B982B112B8EAE0F1E0808188618083C9
:10087000EBE0F1E0808188618083089586E082B9B1
:100880002FEF8FEF99E5215080409040E1F700C0B5
:10089000000012B8089589E082B92FEF8FEF99E533
:1008A000215080409040E1F700C0000012B8089548
:1008B000CF93DF93EC01862F90E003D5863429F4A3
:1008C000CE01DCDF80E090E009C0823429F4CE0163
:1008D000E2DF80E090E002C08FEF9FEFDF91CF91E9
:1008E0000895BCCF0895FC011486ED59FF4F22E016
:1008F00030E0318320833A962EE130E0318320834B
:10090000349728E230E031832083329628E730E0C4
:1009100031832083369724E130E03183208332967F
:1009200044EB50E0518340833A9641E04083329754
:100930003183208308951092800086E080938100A7
:100940001092850010928400109289001092880005
:1009500010928B0010928A001092870010928600ED
:1009600010926F0016BA569808956115710551F0EE
:1009700086E69EE00197F1F700006150710961156C
:100980007105B1F70895FC01848195812081318141
:10099000821B930B9387828708954F925F926F9289
:1009A0007F92AF92BF92CF92DF92EF92FF920F931E
:1009B0001F93CF93DF93EC01BEDF19861886F0D228
:1009C0002B013C0104E810E05E0189E6A80EB11C91
:1009D00021C0E6D26B017C01C418D508E608F708EF
:1009E000F5016081718180E090E052D320E030E039
:1009F00040EC5FE3B3D320D36C157D058E059F05D6
:100A000048F4FE01EE59FF4F81E08083CF59DF4F5C
:100A100088834AC0F80180819181892BD1F2C0D2AC
:100A2000688379838A839B83FE01EE59FF4F10828E
:100A300004E810E07E01F3E6EF0EF11CF80180817E
:100A4000918199878887F70160817181CE018DDF5F
:100A5000F80180819181288539852817390771F738
:100A60009FD26C837D838E839F83CE018CDF8A85AA
:100A70009B85FE01EB59FF4F20813181821793073F
:100A800048F43296208131812817390718F43697B7
:100A9000108205C081E0FE01EF59FF4F8083FE0107
:100AA000EF59FF4F80818C87DF91CF911F910F917C
:100AB000FF90EF90DF90CF90BF90AF907F906F90BE
:100AC0005F904F900895CF92DF92EF92FF920F9335
:100AD0001F93CF93DF93EC0100E010E07C0182E6EE
:100AE000E80EF11C0F2EFDE0DF2EF02DCC24C39478
:100AF000CE0153DF8130C1F5F7018081882321F0D9
:100B000005301105ECF034C0C8010196D89ED00123
:100B1000D99EB00D1124AC0FBD1FFE012D2D0190EB
:100B20000D922A95E1F7D09EF001D19EF00D11248F
:100B3000EC0FFD1FC18E8C0186309105CCF4D8CF0F
:100B4000CE01C154D1094DE0409F9001419F300D2D
:100B500011242C0F3D1FFC01E65AFF4F10820D9708
:100B600082179307C1F704C0063011050CF4C0CFFB
:100B700081E0DF91CF911F910F91FF90EF90DF9077
:100B8000CF9008952F923F924F925F926F927F92F3
:100B90008F929F92AF92BF92CF92DF92EF92FF928D
:100BA0000F931F93CF93DF93FC01E55AFF4F108201
:100BB00031961082319610823196108231961082D1
:100BC00031961082EC01298D21111AC0FC01DC0143
:100BD000A55ABF4F20E030E0BC016F587F4F8C0119
:100BE00001591F4FAC0145595F4F5C01D9E6AD0E6D
:100BF000B11C882483940F2EF3E09F2EF02D0BC0A0
:100C00009C012A5D3F4F235F3F4FF9013D97408193
:100C10004111F9CFDBCF1F01818D811102C01C92E0
:100C200055C0EB018881882349F11216130634F56B
:100C3000C584D684E784F0884480558066807780B8
:100C4000C418D508E608F708E501888199819695CA
:100C500087952C01612C712C4C145D046E047F046B
:100C6000F0F5EA0188819981969587952C01612C90
:100C7000712CC414D504E604F70498F5E101EF885B
:100C8000F88CE80168807980EA01888199816701A0
:100C9000C81AD90AC601992324F4882799278C19E0
:100CA0009D098615970510F49C9210C0E501888176
:100CB0009981E81AF90AC701992324F4882799270A
:100CC0008E199F098615970570F48C922F5F3F4F00
:100CD0003D9611962630310509F09DCF06C080E083
:100CE00005C080E003C080E001C081E0DF91CF91CA
:100CF0001F910F91FF90EF90DF90CF90BF90AF903A
:100D00009F908F907F906F905F904F903F902F902B
:100D10000895DC01A55ABF4FE62FF72F20E030E001
:100D20008D91805D81932F5F3F4F26303105C1F754
:100D30000895CF93DF93CDB7DEB7CD5ED1090FB65F
:100D4000F894DEBF0FBECDBFCE018C549F4FCFDADB
:100D5000CE010196C8DD40E051EE60E070E0CE01CA
:100D600089519F4F26D1CE018D589F4F4BDDCE012B
:100D700083519F4FB6DD68E270E0CE0185519F4FF1
:100D800025DB6FE372E0CE0185519F4F39DD65E4CD
:100D900072E0CE018C549F4FF1DA68E472E0CE012C
:100DA00089519F4F35D1CDD0C052DF4F1882198263
:100DB0001A821B82C05ED040CC51DF4F188219824C
:100DC0001A82C45ED0400F2EF9E5EF2EF2E0FF2E1E
:100DD000F02D8E0104531F4FCE01019674DECE011B
:100DE0000196D0DED82EBE0160527F4FCE01019613
:100DF00090DFCF51DF4F9881C15ED040903309F42E
:100E00006EC0DD2009F46BC04AE062E0CE018C5474
:100E10009F4FB6DA66E572E0CE018C549F4FAEDA92
:100E2000BFD09F938F937F936F93FF92EF921F9307
:100E30000F934FD2CA51DF4F1882C65ED040BE0119
:100E400060527F4FCE0189519F4FE2D06FE572E033
:100E5000CE0189519F4FDCD0B801CE0189519F4FFF
:100E6000D7D06DE0CE0189519F4FCAD06AE0CE0144
:100E700089519F4FC5D0CE018C549F4F68DABE0177
:100E800060527F4FCE018C549F4F64DABE01605296
:100E90007F4FCE018D589F4FC1DCD82E4AE061E0D4
:100EA000CE018C549F4F6CDA6D2DCE018C549F4F28
:100EB00088DA41E062E0CE018C549F4F61DAB801DC
:100EC000CE018C549F4F46DA6D2DCE0183519F4F3A
:100ED000EFDC0FB6F894DEBF0FBECDBF7DCF4AE08A
:100EE00062E0CE018C549F4F4BDA61E672E0CE0196
:100EF0008C549F4F43DA70CF1F920F920FB60F9210
:100F000011248F939F93AF93BF938091640290912C
:100F10006502A0916602B09167020196A11DB11D04
:100F20008093640290936502A0936602B093670277
:100F3000BF91AF919F918F910F900FBE0F901F9017
:100F40001895F8941092900085E08093910010928B
:100F5000920081E080937100109264021092650209
:100F600010926602109267021092950010929400FF
:100F700078940895209194003091950080916402B6
:100F800090916502A0916602B0916702DC019927F9
:100F90008827BC01CD01620F731F811D911D08952B
:100FA000E9DF76D02FE836E34EE85DE3D7D044C0E2
:100FB0000895CF92DF92EF92FF92CF93DF93EC01EF
:100FC0006A017B0160E070E18EE090E0A70196018C
:100FD00050D1215031093093C5002093C40088E1DD
:100FE0008093C10086E08093C200C882D982EA82E1
:100FF000FB82DF91CF91FF90EF90DF90CF9008952B
:10100000E0ECF0E0808185FFFDCF6093C60008959D
:101010000F931F93CF93DF938C01EB0168816623BD
:1010200031F02196C801ECDF69916111FBCFDF91AE
:10103000CF911F910F91089570D088F09F5790F035
:10104000B92F9927B751A0F0D1F0660F771F881FED
:10105000991F1AF0BA95C9F712C0B13081F077D054
:10106000B1E0089574C0672F782F8827B85F39F0F2
:10107000B93FCCF3869577956795B395D9F73EF44C
:1010800090958095709561957F4F8F4F9F4F0895F4
:10109000E89409C097FB3EF4909580957095619512
:1010A0007F4F8F4F9F4F9923A9F0F92F96E9BB27C8
:1010B0009395F695879577956795B795F111F8CF44
:1010C000FAF4BB0F11F460FF1BC06F5F7F4F8F4FAF
:1010D0009F4F16C0882311F096E911C0772321F0A5
:1010E0009EE8872F762F05C0662371F096E8862F3D
:1010F00070E060E02AF09A95660F771F881FDAF794
:10110000880F9695879597F9089557FD9058440F45
:10111000551F59F05F3F71F04795880F97FB991F56
:1011200061F09F3F79F08795089512161306140613
:10113000551FF2CF4695F1DF08C0161617061806A0
:10114000991FF1CF86957105610508940895E8947B
:10115000BB2766277727CB0197F908950BD078C076
:1011600069D028F06ED018F0952309F05AC05FC0FE
:101170001124EECFCADFA0F3959FD1F3950F50E075
:10118000551F629FF001729FBB27F00DB11D639F39
:10119000AA27F00DB11DAA1F649F6627B00DA11DDF
:1011A000661F829F2227B00DA11D621F739FB00D85
:1011B000A11D621F839FA00D611D221F749F3327F5
:1011C000A00D611D231F849F600D211D822F762F8E
:1011D0006A2F11249F5750408AF0E1F088234AF08B
:1011E000EE0FFF1FBB1F661F771F881F91505040D7
:1011F000A9F79E3F510570F014C0AACF5F3FECF3F2
:10120000983EDCF3869577956795B795F795E795C2
:101210009F5FC1F7FE2B880F911D9695879597F9D3
:10122000089597F99F6780E870E060E008959FEF68
:1012300080EC089500240A9416161706180609066D
:10124000089500240A94121613061406050608953C
:10125000092E0394000C11F4882352F0BB0F40F4C4
:10126000BF2B11F460FF04C06F5F7F4F8F4F9F4F04
:101270000895A1E21A2EAA1BBB1BFD010DC0AA1FD7
:10128000BB1FEE1FFF1FA217B307E407F50720F0EF
:10129000A21BB30BE40BF50B661F771F881F991F6A
:1012A0001A9469F760957095809590959B01AC01B3
:1012B000BD01CF010895EE0FFF1F0590F491E02DC1
:1012C00019949111089581568A5108F480528558D5
:1012D00008950F931F93CF93DF93CDB7DEB72E976B
:1012E0000FB6F894DEBF0FBECDBF0E891F8986E012
:1012F0008C831A8309838FEF9FE79E838D83AE01D2
:10130000465E5F4F688D798DCE01019610D0EF81DA
:10131000F885E00FF11F10822E960FB6F894DEBF0D
:101320000FBECDBFDF91CF911F910F9108952F92E6
:101330003F924F925F926F927F928F929F92AF9265
:10134000BF92CF92DF92EF92FF920F931F93CF93B2
:10135000DF93CDB7DEB72C970FB6F894DEBF0FBE84
:10136000CDBF7C016B018A01FC011782168283814B
:1013700081FFB0C1CE0101964C01F7019381F601C6
:1013800093FD859193FF81916F01882309F49EC19C
:10139000853239F493FD859193FF81916F018532F8
:1013A00021F4B70190E0C7D1E8CF512C312C20E0D7
:1013B0002032A0F48B3269F030F4803259F083325D
:1013C00069F420612CC08D3239F0803339F421600A
:1013D00026C02260246023C0286021C027FD27C0CA
:1013E00030ED380F3A3078F426FF06C0FAE05F9E01
:1013F000300D1124532E13C08AE0389E300D112475
:10140000332E20620CC08E3221F426FD5FC1206491
:1014100006C08C3611F4206802C0883641F4F6010B
:1014200093FD859193FF81916F018111C1CF982F19
:101430009F7D9554933028F40C5F1F4FFFE3F98391
:101440000DC0833631F0833771F0833509F057C012
:1014500021C0F801808189830E5F1F4F442443948B
:10146000512C540114C03801F2E06F0E711CF801C8
:10147000A080B18026FF03C0652D70E002C06FEF31
:101480007FEFC5012C874CD12C0183012C852F7750
:10149000222E16C03801F2E06F0E711CF801A080F8
:1014A000B18026FF03C0652D70E002C06FEF7FEFB3
:1014B000C5012C872AD12C012C852068222E83017E
:1014C00023FC19C0832D90E048165906A0F4B701FB
:1014D00080E290E030D13A94F5CFF50127FC859178
:1014E00027FE81915F01B70190E025D131103A9438
:1014F000F1E04F1A51084114510479F7DEC08436E7
:1015000011F0893631F5F80127FF07C0608171813C
:10151000828193810C5F1F4F08C060817181882791
:1015200077FD8095982F0E5F1F4F2F76B22E97FF75
:1015300009C090958095709561957F4F8F4F9F4F13
:101540002068B22E2AE030E0A40127D1A82EA818E6
:1015500043C0853729F42F7EB22E2AE030E025C023
:10156000F22FF97FBF2E8F36C1F018F4883579F04D
:10157000ADC0803719F0883721F0A8C02F2F206127
:10158000B22EB4FE0DC08B2D8460B82E09C024FF8E
:101590000AC09F2F9660B92E06C028E030E005C033
:1015A00020E130E002C020E132E0F801B7FE07C0E0
:1015B00060817181828193810C5F1F4F06C06081C1
:1015C000718180E090E00E5F1F4FA401E6D0A82E4D
:1015D000A818FB2DFF77BF2EB6FE0BC02B2D2E7F3C
:1015E000A51450F4B4FE0AC0B2FC08C02B2D2E7E08
:1015F00005C07A2C2B2D03C07A2C01C0752C24FF3A
:101600000DC0FE01EA0DF11D8081803311F4297EA9
:1016100009C022FF06C07394739404C0822F867899
:1016200009F0739423FD12C020FF06C05A2C7314D6
:1016300018F4530C5718732C731460F4B70180E23C
:1016400090E02C8778D073942C85F6CF731410F427
:10165000371801C0312C24FF11C0B70180E390E09E
:101660002C8769D02C8522FF16C021FF03C088E596
:1016700090E002C088E790E0B7010CC0822F867826
:1016800051F021FD02C080E201C08BE227FD8DE216
:10169000B70190E050D0A51430F4B70180E390E09A
:1016A0004AD05A94F8CFAA94F401EA0DF11D808132
:1016B000B70190E040D0A110F6CF332009F45DCE01
:1016C000B70180E290E037D03A94F7CFF7018681F6
:1016D000978102C08FEF9FEF2C960FB6F894DEBF74
:1016E0000FBECDBFDF91CF911F910F91FF90EF9073
:1016F000DF90CF90BF90AF909F908F907F906F9032
:101700005F904F903F902F900895FC01059061509D
:1017100070400110D8F7809590958E0F9F1F089507
:10172000FC016150704001900110D8F780959095B0
:101730008E0F9F1F08950F931F93CF93DF93182F42
:10174000092FEB018B8181FD03C08FEF9FEF20C03C
:1017500082FF10C04E815F812C813D81421753076B
:101760007CF4E881F9819F012F5F3F4F3983288303
:10177000108306C0E885F985812F1995892B29F7F3
:101780002E813F812F5F3F4F3F832E83812F902FEC
:10179000DF91CF911F910F910895FA01AA27283068
:1017A00051F1203181F1E8946F936E7F6E5F7F4F2E
:1017B0008F4F9F4FAF4FB1E03ED0B4E03CD0670FAA
:1017C000781F891F9A1FA11D680F791F8A1F911DFD
:1017D000A11D6A0F711D811D911DA11D20D009F44D
:1017E00068943F912AE0269F11243019305D31938F
:1017F000DEF6CF010895462F4770405D4193B3E078
:101800000FD0C9F7F6CF462F4F70405D4A3318F01E
:10181000495D31FD4052419302D0A9F7EACFB4E0CF
:10182000A6959795879577956795BA95C9F7009787
:101830006105710508959B01AC010A2E0694579528
:10184000479537952795BA95C9F7620F731F841F7F
:0A185000951FA01D0895F894FFCF26
:10185A0020455449414E4D53555257444B474F48E2
:10186A005646554C41504A425843595A5120203500
:10187A00342033202020203220202B2020203136F3
:10188A003D2F2020202020372020203820393048A2
:10189A00656C6C6F003A2900496E697469616C69FC
:1018AA007365640D0A004F6B00543A256C75000984
:0418BA000045720073
:00000001FF
