:10000000CBC00000E9C00000E7C00000E5C0000070
:10001000E3C0000077C4000050C40000DDC0000051
:10002000DBC00000D9C00000D7C00000D5C0000070
:10003000D3C00000D1C00000CFC00000CDC0000080
:10004000CBC00000C9C00000C7C00000C5C0000090
:10005000C3C00000C1C00000BFC00000BDC00000A0
:10006000BBC00000B9C00000B7C00000B5C00000B0
:10007000B3C00000B1C00000AFC00000ADC00000C0
:10008000ABC00000A9C00000A7C000000C94E108AC
:10009000A3C00000A1C000009FC000009DC00000E0
:1000A0009BC0000099C0000097C0000095C00000F0
:1000B00093C0000091C000008FC000008DC0000000
:1000C0008BC0000089C0000087C0000085C0000010
:1000D00083C0000081C000007FC000007DC0000020
:1000E0007BC000005602C203C203C203C203C203A4
:1000F000C203C203C203C203C203C203A103C203F9
:100100009603C20334033D03470351035B036503B6
:100110006E03780382038C03AC03C203C203C203E1
:10012000C203B703C20367026E027702800288022D
:100130008D0296029E02A602AC02B502BD02C60264
:10014000CC02D302DA02E302EC02F402FB02000367
:10015000080311031903C2032B03C203C203C20322
:10016000C203C203C203C203C203C203C203C20367
:10017000C203C203C203C203C203C203C203C20357
:10018000C203C203C203C203C203C203C203C20347
:10019000C203C203C203220311241FBECFEFD1E268
:1001A000DEBFCDBF00E00CBF12E0A0E0B2E0E4EFA4
:1001B000F5E100E00BBF02C007900D92A436B10735
:1001C000D9F722E0A4E6B2E001C01D92A037B20741
:1001D000E1F761D70C94F80A13CF87B1876F87B91D
:1001E00088B1807888B9089586E69EE00197F1F796
:1001F00000004098419880E388B9429A8FEF97E4D5
:100200000197F1F700C00000429886E69EE0019752
:10021000F1F700004098419880E388B9429A8FEF47
:1002200097E40197F1F700C00000429886E69EE04F
:100230000197F1F700004098419880E388B9429A0D
:100240008FEF97E40197F1F700C00000429886E62F
:100250009EE00197F1F700004098419880E288B94C
:10026000429A86E69EE00197F1F7000042980895D1
:1002700088B18F7088B988B1962F907F892B88B903
:1002800040984198429A8FEF97E40197F1F700C0A8
:100290000000429888B18F7088B988B16295607FFC
:1002A000682B68B940984198429A8FEF97E401977C
:1002B000F1F700C0000042980895CF93DF93EC015E
:1002C00086E69EE00197F1F7000068E2CE01D0DFFC
:1002D00061E0CE01CDDF66E0CE01CADF6EE0CE0187
:1002E000C7DF60E8CE01C4DFDF91CF910895CF93DF
:1002F000DF93EC0172DFCE0177DFCE01DEDFDF912D
:10030000CF91089588B18F7088B988B1962F907F6A
:10031000892B88B9409A4198429A8FEF97E40197C8
:10032000F1F700C00000429888B18F7088B988B199
:100330006295607F682B68B9409A4198429A8FEF26
:1003400097E40197F1F700C000004298089560E833
:100350008FCF08950F931F93CF93DF938C01EB0101
:100360006881662331F02196C801CCDF6991611163
:10037000FBCFDF91CF911F910F910895EBCF08959F
:10038000623069F018F4613031F015C0633059F013
:10039000643069F010C06FE7640F6ACF08956FEBA7
:1003A000640F66CF089563E9640F62CF089563ED2B
:1003B000640F5ECF0895611103C0411101C0C7CF22
:1003C0000895A0CF08950F931F93CF93DF93EC016F
:1003D0008B01642F422FD4DFB801CE01BBDFDF9148
:1003E000CF911F910F9108953B9A43980895FC0176
:1003F00071836083F9CF0895439A089543980895CF
:100400006115710551F086E69EE00197F1F7000055
:100410006150710961157105B1F70895CF93DF93AC
:10042000EC01EADF68817981CE01EADFCE01E6DF07
:1004300068817981CE01E4DFDF91CF910895CF9378
:10044000DF93EC01D9DF88819981BC01660F771FAA
:10045000680F791FCE01D4DFCE01D0DF68817981AA
:10046000CE01CEDFDF91CF910895AF92BF92CF92B0
:10047000DF92EF92FF920F931F93CF93DF93CDB74D
:10048000DEB727970FB6F894DEBF0FBECDBF5C0175
:10049000862F90E00E94F00A80978A35910508F037
:1004A00071C18E589F4FFC010C94D60AC501A6DF7E
:1004B000F50180819181BC01660F771F660F771F60
:1004C000660F771F681B790BC5019ADF87C181E32F
:1004D000898383E38A8381E090E072C183E3898327
:1004E00081E38A838B838C8383E090E069C193E30B
:1004F000998381E38A839B838C8383E090E060C14E
:1005000083E3898381E38A838B8382E090E058C10F
:1005100081E3898380E090E053C181E389838A830A
:1005200093E39B838C8383E090E04AC183E38983D8
:100530008A8381E38B8382E090E042C181E38983F7
:100540008A838B838C8383E090E03AC181E3898343
:100550008A8381E090E034C181E3898383E38A83E5
:100560008B838C8383E090E02BC183E3898391E3C9
:100570009A838B8382E090E023C181E3898393E3B4
:100580009A838B838C8383E090E01AC183E3898311
:100590008A8381E090E014C183E3898381E38A83C5
:1005A00081E090E00DC183E389838A838B8382E0BD
:1005B00090E006C181E3898393E39A839B838C83D4
:1005C00083E090E0FDC083E389838A8391E39B838A
:1005D0008C8383E090E0F4C081E3898393E39A8382
:1005E0008B8382E090E0ECC081E389838A838B83F4
:1005F00082E090E0E5C083E3898380E090E0E0C0A2
:1006000081E389838A8383E38B8382E090E0D8C08F
:1006100081E389838A838B8383E38C8383E090E007
:10062000CFC081E3898383E38A838B8382E090E078
:10063000C7C083E3898391E39A839B838C8383E0A0
:1006400090E0BEC083E3898391E39A838B838C839C
:1006500083E090E0B5C083E389838A8381E38B8361
:100660008C8383E090E0ACC083E389838A838B83AF
:100670008C838D8384E090E0A3C081E3898383E34E
:100680008A838B838C838D8384E090E099C081E39F
:1006900089838A8383E38B838D838C8383E090E0DB
:1006A0008FC081E389838A838B8383E38C838D83EB
:1006B00084E090E085C081E389838A838B838C8387
:1006C00083E38D8384E090E07BC081E389838A8328
:1006D0008B838C838D8384E090E072C083E3898375
:1006E00081E38A838B838C838D8384E090E068C070
:1006F00083E389838A8381E38B838C838D8384E086
:1007000090E05EC083E389838A838B8381E38C835B
:100710008D8384E090E054C083E389838A838B8354
:100720008C8381E38D8384E090E04AC091E39983D8
:1007300083E38A839B838C839D838E8385E090E013
:100740003FC083E389838A8391E39B839C838D836A
:100750008E8385E090E034C083E389838A838B8332
:1007600081E38C838D838E8385E090E029C081E3D3
:1007700089838A8393E39B839C838D838E8385E027
:1007800090E01EC01A82CC24C394D12C21C0F70162
:1007900081917F01813319F4C50140DE04C08333A8
:1007A00011F4C5014CDE0F5F1F4F0C151D057CF3C6
:1007B000F50160817181660F771FC50121DE0EC0D2
:1007C0006C01FFEFCF1ADF0AFE01EC0DFD1D118257
:1007D000CE0101967C0100E010E0D9CF27960FB63C
:1007E000F894DEBF0FBECDBFDF91CF911F910F9167
:1007F000FF90EF90DF90CF90BF90AF9008950F9350
:100800001F93CF93DF938C01EB016881662331F056
:100810002196C8012ADE69916111FBCFDF91CF914A
:100820001F910F910895EBCF0895CF93DF9300D0E0
:1008300000D0CDB7DEB726E0EFE3F2E0DE0111969F
:1008400001900D922A95E1F7BE016F5F7F4FD7DFD0
:1008500026960FB6F894DEBF0FBECDBFDF91CF91C5
:100860000895DC018FE390E08D939D93E0E0F2E04A
:1008700001900D928A95E1F70895FB0120E030E0A8
:1008800040E050E06191613329F4440F551F4F5F00
:100890005F4F0CC0633329F44F5F5F4F440F551F08
:1008A00005C0FC01E40FF51F828108952F5F3F4FC3
:1008B0002730310539F780E208951F920F920FB665
:1008C0000F9211248F939F93AF93BF9380916402F3
:1008D00090916502A0916602B09167020196A11DF8
:1008E000B11D8093640290936502A0936602B09359
:1008F0006702BF91AF919F918F910F900FBE0F90A4
:100900001F9018951F920F920FB60F9211248F937C
:100910009F93AF93BF938091680290916902A091D9
:100920006A02B0916B020196A11DB11D809368020D
:1009300090936902A0936A02B0936B02BF91AF914A
:100940009F918F910F900FBE0F901F901895089553
:1009500081B18F6081B982B1807F82B9EAE0F1E034
:10096000808188618083EBE0F1E080818861808311
:1009700008956C98749A08956D98759A0895CF9318
:10098000DF93EC01E5DFCE01F4DFCE01F5DFDF918F
:10099000CF910895F894EAE6F0E080818260808348
:1009A000EC9A78940895F894EAE6F0E08081886003
:1009B0008083ED9A7894089582B1807F6F70682B60
:1009C00062B9089566E0F8CF089569E0F5CF08951B
:1009D00065E0F2CF08956AE0EFCF089560E0ECCFD4
:1009E0000895CF92DF92EF92FF920F931F93CF93D0
:1009F000DF93EC0180E090E0D5D428E431EE42E8CA
:100A000050E43CD4A3D4CB01A0E0B0E01092640247
:100A100010926502109266021092670210926802AC
:100A20001092690210926A0210926B0251E0E0E0AB
:100A3000C0906402D0906502E0906602F090670278
:100A4000009168021091690220916A0230916B0254
:100A5000452F081719072A073B0708F44E2F4111A5
:100A600009C0252FC816D906EA06FB0608F42E2F62
:100A70002223F1F2CE01B2DFDF91CF911F910F91CE
:100A8000FF90EF90DF90CF9008950F931F93CF9337
:100A9000DF93EC0180E090E085D425EE30ED4AEA6A
:100AA00050E4ECD353D41092640210926502109279
:100AB0006602109267020091640210916502209113
:100AC000660230916702601771078207930798F7F3
:100AD000CE0184DFDF91CF911F910F9108950F9385
:100AE0001F93CF93DF93EC018B016CDFB801CE0134
:100AF000CCDFDF91CF911F910F9108950F931F933A
:100B0000CF93DF93EC018B0160DFB801CE01BDDF35
:100B1000DF91CF911F910F9108950F931F93CF9362
:100B2000DF93EC018B0154DFB801CE015ADFDF9176
:100B3000CF911F910F9108950F931F93CF93DF9340
:100B4000EC018B0148DFB801CE014BDFDF91CF9183
:100B50001F910F910895CF93DF93EC01F8940FDF6D
:100B6000CE0118DFCE011FDF7894DF91CF91089579
:100B7000CF92DF92EF92FF920F931F93CF93DF9369
:100B8000EC01862F90E02CD5BC01772766347105E7
:100B900061F024F46234710571F01FC06C3471058A
:100BA000B1F06235710569F018C064EF71E0CE01F3
:100BB00096DF81E035C064EF71E0CE019FDF81E018
:100BC0002FC06AE570E0CE01B7DF81E029C06AE599
:100BD00070E0CE01A2DF81E023C083538730D8F4D8
:100BE0007B0180E3E81AF10888E691E0B701CBD4F5
:100BF0006B011E141F048CF400E010E060E971E04A
:100C0000CE016DDFB601CE01ECDE0F5F1F4F0E157A
:100C10001F05A4F304C080E003C081E001C081E0AF
:100C2000DF91CF911F910F91FF90EF90DF90CF90C8
:100C30000895CF93DF93EC018ADE2196CE0187DE03
:100C4000CE0189DFDF91CF910895FC011486ED5923
:100C5000FF4F22E030E0318320833A962EE130E0EE
:100C600031832083349728E230E031832083329629
:100C700028E730E031832083369724E130E0318368
:100C80002083329644EB50E0518340833A9641E012
:100C9000408332973183208308951092800086E04C
:100CA0008093810010928500109284001092890038
:100CB0001092880010928B0010928A001092870088
:100CC0001092860010926F0016BA5698089561151A
:100CD000710551F086E69EE00197F1F70000615042
:100CE000710961157105B1F70895FC018481958141
:100CF00020813181821B930B9387828708954F92C5
:100D00005F926F927F92AF92BF92CF92DF92EF92FB
:100D1000FF920F931F93CF93DF93EC01BEDF1986F1
:100D20001886A3D22B013C0104E810E05E0189E69D
:100D3000A80EB11C21C099D26B017C01C418D50842
:100D4000E608F708F5016081718180E090E02AD320
:100D500020E030E040EC5FE3B3D3F8D26C157D05C2
:100D60008E059F0548F4FE01EE59FF4F81E0808318
:100D7000CF59DF4F88834AC0F80180819181892B48
:100D8000D1F273D2688379838A839B83FE01EE5903
:100D9000FF4F108204E810E07E01F3E6EF0EF11C35
:100DA000F8018081918199878887F701608171813D
:100DB000CE018DDFF8018081918128853985281742
:100DC000390771F752D26C837D838E839F83CE0166
:100DD0008CDF8A859B85FE01EB59FF4F2081318195
:100DE0008217930748F432962081318128173907FA
:100DF00018F43697108205C081E0FE01EF59FF4FCD
:100E00008083FE01EF59FF4F80818C87DF91CF9166
:100E10001F910F91FF90EF90DF90CF90BF90AF9018
:100E20007F906F905F904F900895CF92DF92EF92F6
:100E3000FF920F931F93CF93DF93EC0100E010E03C
:100E40007C0182E6E80EF11C0F2EFDE0DF2EF02D76
:100E5000CC24C394CE0153DF8130C1F5F7018081EA
:100E6000882321F005301105ECF034C0C80101964B
:100E7000D89ED001D99EB00D1124AC0FBD1FFE012C
:100E80002D2D01900D922A95E1F7D09EF001D19E73
:100E9000F00D1124EC0FFD1FC18E8C0186309105E1
:100EA000CCF4D8CFCE01C154D1094DE0409F900180
:100EB000419F300D11242C0F3D1FFC01E65AFF4FBE
:100EC00010820D9782179307C1F704C006301105F1
:100ED0000CF4C0CF81E0DF91CF911F910F91FF9073
:100EE000EF90DF90CF9008952F923F924F925F92B4
:100EF0006F927F928F929F92AF92BF92CF92DF922A
:100F0000EF92FF920F931F93CF93DF93FC01E55A6B
:100F1000FF4F1082319610823196108231961082E6
:100F20003196108231961082EC01298D21111AC060
:100F3000FC01DC01A55ABF4F20E030E0BC016F5836
:100F40007F4F8C0101591F4FAC0145595F4F5C0128
:100F5000D9E6AD0EB11C882483940F2EF3E09F2EAA
:100F6000F02D0BC09C012A5D3F4F235F3F4FF901DD
:100F70003D9740814111F9CFDBCF1F01818D811158
:100F800002C01C9255C0EB018881882349F11216DA
:100F9000130634F5C584D684E784F08844805580F0
:100FA00066807780C418D508E608F708E5018881CF
:100FB0009981969587952C01612C712C4C145D04B8
:100FC0006E047F04F0F5EA018881998196958795F2
:100FD0002C01612C712CC414D504E604F70498F597
:100FE000E101EF88F88CE80168807980EA01888166
:100FF00099816701C81AD90AC601992324F4882760
:1010000099278C199D098615970510F49C9210C09C
:10101000E50188819981E81AF90AC701992324F426
:10102000882799278E199F098615970570F48C9249
:101030002F5F3F4F3D9611962630310509F09DCF29
:1010400006C080E005C080E003C080E001C081E010
:10105000DF91CF911F910F91FF90EF90DF90CF9094
:10106000BF90AF909F908F907F906F905F904F90C8
:101070003F902F900895DC01A55ABF4FE62FF72F20
:1010800020E030E08D91805D81932F5F3F4F2630CF
:101090003105C1F70895CF93DF93CDB7DEB7C65DB5
:1010A000D1090FB6F894DEBF0FBECDBFCE018C5470
:1010B0009F4F1DD9CE010196C8DDCE018D589F4F9F
:1010C000D0DBCE018B529F4FB4DD68E270E0CE01E1
:1010D0008D529F4F8CD965E472E0CE018D529F4FA7
:1010E000A2DB6BE472E0CE018C549F4F47D98ED0C7
:1010F000C453DF4F188219821A821B82CC5CD04005
:10110000C053DF4F188219821A82C05DD040CE01D1
:1011100001968BDECE010196E7DE182FBE016453E7
:101120007F4FCE010196A7DFC353DF4F9881CD5C7F
:10113000D040903309F43CC0112309F439C04AE08F
:1011400062E0CE018C549F4F1BD96EE472E0CE0159
:101150008C549F4F13D9CE52DF4F1882C25DD040BE
:10116000BE0164537F4FCE018D589F4F86DB182FF1
:101170004AE061E0CE018C549F4F02D9612FCE012D
:101180008C549F4F1ED9612FCE018B529F4FF0DCA4
:10119000882309F4BCCFCE018D529F4F46DB20E05F
:1011A00042E061E572E0CE018C549F4F0CD9AFCF85
:1011B00020E042E06AE572E0CE018C549F4F03D9F3
:1011C000A6CF1F920F920FB60F9211248F939F9369
:1011D000AF93BF9380916C0290916D02A0916E02CB
:1011E000B0916F020196A11DB11D80936C02909386
:1011F0006D02A0936E02B0936F02BF91AF919F9169
:101200008F910F900FBE0F901F901895F894109229
:10121000900085E0809391001092920081E080938D
:10122000710010926C0210926D0210926E02109278
:101230006F02109295001092940078940895209176
:1012400094003091950080916C0290916D02A09174
:101250006E02B0916F02DC0199278827BC01CD0195
:10126000620F731F811D911D0895E9DF9BD02FE848
:1012700036E34EE85DE324D169C008950CD0E6C0A2
:10128000DED040F0D5D030F021F45F3F19F0C7C078
:10129000511110C1CAC0EBD098F39923C9F355235B
:1012A000B1F3951B550BBB27AA2762177307840759
:1012B00038F09F5F5F4F220F331F441FAA1FA9F30F
:1012C00033D00E2E3AF0E0E830D091505040E69501
:1012D000001CCAF729D0FE2F27D0660F771F881F62
:1012E000BB1F261737074807AB07B0E809F0BB0B51
:1012F000802DBF01FF2793585F4F2AF09E3F510575
:1013000068F08DC0D7C05F3FECF3983EDCF3869564
:1013100077956795B795F7959F5FC9F7880F911DEA
:101320009695879597F90895E1E0660F771F881FD6
:10133000BB1F621773078407BA0720F0621B730B89
:10134000840BBA0BEE1F88F7E095089598D088F0CB
:101350009F5790F0B92F9927B751A0F0D1F0660FA1
:10136000771F881F991F1AF0BA95C9F712C0B130BC
:1013700081F09FD0B1E008959CC0672F782F882717
:10138000B85F39F0B93FCCF3869577956795B395FB
:10139000D9F73EF490958095709561957F4F8F4F6A
:1013A0009F4F0895E89409C097FB3EF4909580956F
:1013B000709561957F4F8F4F9F4F9923A9F0F92F1B
:1013C00096E9BB279395F695879577956795B79599
:1013D000F111F8CFFAF4BB0F11F460FF1BC06F5F7F
:1013E0007F4F8F4F9F4F16C0882311F096E911C091
:1013F000772321F09EE8872F762F05C0662371F0B2
:1014000096E8862F70E060E02AF09A95660F771FC5
:10141000881FDAF7880F9695879597F9089597F9B9
:101420009F6780E870E060E008959FEF80EC08958A
:1014300000240A94161617061806090608950024B3
:101440000A9412161306140605060895092E03942D
:10145000000C11F4882352F0BB0F40F4BF2B11F4A1
:1014600060FF04C06F5F7F4F8F4F9F4F089557FD00
:101470009058440F551F59F05F3F71F04795880F02
:1014800097FB991F61F09F3F79F087950895121699
:1014900013061406551FF2CF4695F1DF08C0161645
:1014A00017061806991FF1CF8695710561050894F6
:1014B0000895E894BB2766277727CB0197F908950D
:1014C0000BD0C4CFB5DF28F0BADF18F0952309F0B0
:1014D000A6CFABCF1124EECFCADFA0F3959FD1F3F7
:1014E000950F50E0551F629FF001729FBB27F00DD2
:1014F000B11D639FAA27F00DB11DAA1F649F662727
:10150000B00DA11D661F829F2227B00DA11D621F75
:10151000739FB00DA11D621F839FA00D611D221F2F
:10152000749F3327A00D611D231F849F600D211D13
:10153000822F762F6A2F11249F5750408AF0E1F0B6
:1015400088234AF0EE0FFF1FBB1F661F771F881FFF
:1015500091505040A9F79E3F510570F060CFAACF3F
:101560005F3FECF3983EDCF3869577956795B795EA
:10157000F795E7959F5FC1F7FE2B880F911D969514
:10158000879597F9089597FB072E16F4009406D0D7
:1015900077FD08D011D007FC05D03EF490958195D9
:1015A0009F4F0895709561957F4F0895EE0FFF1F2F
:1015B0000590F491E02D1994AA1BBB1B51E107C0C3
:1015C000AA1FBB1FA617B70710F0A61BB70B881FD3
:1015D000991F5A95A9F780959095BC01CD01089562
:1015E0009111089581568A5108F4805285580895C2
:0415F000F894FFCF9D
:1015F40020455449414E4D53555257444B474F484B
:101604005646554C41504A425843595A5120203568
:10161400342033202020203220202B20202031365B
:101624003D2F202020202037202020382039305200
:101634004F4745520048656C6C6F003A29004F6B68
:1016440000524F474552202020004552524F52200D
:0416540052780000C8
:00000001FF
